:100000000C9434000C943E000C943E000C943E0082
:100010000C943E000C943E000C943E000C943E0068
:100020000C943E000C943E000C943E000C943E0058
:100030000C943E000C943E000C943E000C943E0048
:100040000C943E000C943E000C943E000C943E0038
:100050000C943E000C943E000C943E000C943E0028
:100060000C943E000C943E0011241FBECFEFD8E04C
:10007000DEBFCDBF0E9446000C945F000C940000D0
:10008000259A08952D9A08952D9808950E9440006C
:100090000E9442002FEF89E698E121508040904075
:1000A000E1F700C000000E9444002FEF89E698E1CC
:1000B000215080409040E1F700C00000E9CFF89463
:0200C000FFCF70
:00000001FF
