:100000000C9434000C9446000C9446000C9446006A
:100010000C9446000C9446000C9446000C94480046
:100020000C9446000C9446000C9446000C94460038
:100030000C9446000C9446000C9446000C94460028
:100040000C9446000C9446000C9446000C94460018
:100050000C9446000C9446000C9446000C94460008
:100060000C9446000C94460011241FBECFEFD8E03C
:10007000DEBFCDBF21E0A0E0B1E001C01D92A13004
:10008000B207E1F70E946F000C948E000C94000000
:100090001F920F920FB60F9211248F939F9395B1D9
:1000A00080E2892785B99F918F910F900FBE0F90A5
:1000B0001F901895259A0895E0EBF0E0808182600A
:1000C0008083E0E7F0E0808182608083E1EBF0E014
:1000D00080818160808308958093B3000895109299
:1000E00000010E945A000E945C00789480E0809396
:1000F000B300EFEFFCE73197F1F700C000008F5F2E
:100100008F3FA9F78093B300EFEFFCE73197F1F74A
:1001100000C0000081508130A9F7E8CFF894FFCFEC
:00000001FF
