:100000000C9434000C943E000C943E000C943E0082
:100010000C943E000C943E000C943E000C943E0068
:100020000C943E000C943E000C943E000C94400056
:100030000C943E000C943E000C943E000C943E0048
:100040000C943E000C943E000C943E000C943E0038
:100050000C943E000C943E000C943E000C943E0028
:100060000C943E000C943E0011241FBECFEFD8E04C
:10007000DEBFCDBF0E946F000C9499000C9400006D
:100080001F920F920FB60F9211248F939F9395B1E9
:1000900080E2892785B99F918F910F900FBE0F90B5
:1000A0001F901895259A0895E0E8F0E0808181601E
:1000B0008083E1E8F0E0808180618083EFE6F0E01A
:1000C0008081826080830895E1E8F0E09081892B4F
:1000D00080830895909389008093880008950E94FA
:1000E00052000E94540082E090E00E9464007894E4
:1000F00080E090E09093890080938800EFEFFCE728
:100100003197F1F700C0000001968E3F910591F7FD
:100110008EEF90E09093890080938800EFEFFCE7EA
:100120003197F1F700C0000001978130910591F7F8
:06013000DFCFF894FFCFC1
:00000001FF
