:100000000C9434000C943E000C943E000C943E0082
:100010000C943E000C943E000C9440000C943E0066
:100020000C943E000C943E000C943E000C943E0058
:100030000C943E000C943E000C943E000C943E0048
:100040000C943E000C943E000C943E000C943E0038
:100050000C943E000C943E000C943E000C943E0028
:100060000C943E000C943E0011241FBECFEFD8E04C
:10007000DEBFCDBF0E945C000C9462000C940000B7
:100080001F920F920FB60F9211248F939F9395B1E9
:1000900080E2892785B99F918F910F900FBE0F90B5
:1000A0001F901895259A0895E0E6F0E08081886118
:1000B000808380E6808308950E9452000E9454004D
:0800C0007894FFCFF894FFCF04
:00000001FF
