:100000000C9434000C943E000C943E000C943E0082
:100010000C943E000C943E000C943E000C943E0068
:100020000C943E000C943E000C943E000C943E0058
:100030000C943E000C943E000C943E000C943E0048
:100040000C943E000C943E000C943E000C943E0038
:100050000C943E000C943E000C943E000C943E0028
:100060000C943E000C943E0011241FBECFEFD8E04C
:10007000DEBFCDBF0E944D000C9459000C940000CF
:10008000259A2C9A08952D9808952D9A089583B154
:100090008295817091E0892708950E9440000E9416
:1000A0004700811103C00E944300F9CF0E94450020
:0600B000F6CFF894FFCF2B
:00000001FF
