:100000000C9434000C943E000C943E000C94400080
:100010000C943E000C943E000C943E000C943E0068
:100020000C943E000C943E000C943E000C943E0058
:100030000C943E000C943E000C943E000C943E0048
:100040000C943E000C943E000C943E000C943E0038
:100050000C943E000C943E000C943E000C943E0028
:100060000C943E000C943E0011241FBECFEFD8E04C
:10007000DEBFCDBF0E9461000C9467000C940000AD
:100080001F920F920FB60F9211248F939F93F894A3
:1000900095B180E2892785B978949F918F910F90CF
:1000A0000FBE0F901F901895259A0895E8E6F0E08E
:1000B000808181608083EBE6F0E0808180618083D5
:1000C00008950E9454000E9456007894FFCFF8943F
:0200D000FFCF60
:00000001FF
