:100000000C9434000C943E000C943E000C943E0082
:100010000C943E000C943E000C943E000C943E0068
:100020000C943E000C943E000C943E000C943E0058
:100030000C943E000C943E000C943E000C943E0048
:100040000C943E000C943E000C943E000C943E0038
:100050000C943E000C943E000C943E000C943E0028
:100060000C943E000C943E0011241FBECFEFD8E04C
:10007000DEBFCDBF0E9447000C9455000C940000D9
:10008000259A089595B180E2892785B908950E943F
:1000900040000E9442002FEF83ED90E3215080400A
:0E00A0009040E1F700C00000F4CFF894FFCFCD
:00000001FF
