:100000000C9434000C943E000C943E000C943E0082
:100010000C943E000C943E000C943E000C94400066
:100020000C943E000C943E000C943E000C943E0058
:100030000C943E000C943E000C943E000C943E0048
:100040000C943E000C943E000C943E000C943E0038
:100050000C943E000C943E000C943E000C943E0028
:100060000C943E000C943E0011241FBECFEFD8E04C
:10007000DEBFCDBF0E9467000C9484000C9400008A
:100080001F920F920FB60F9211248F939F9395B1E9
:1000900080E2892785B99F918F910F900FBE0F90B5
:1000A0001F901895259A0895E0EBF0E0808182601A
:1000B0008083E0E7F0E0808182608083E1EBF0E024
:1000C00080818260808308958093B30008950E94A8
:1000D00052000E945400789480E08093B300EFEFC8
:1000E000FCE73197F1F700C000008F5F8F3FA9F761
:1000F0008093B300EFEFFCE73197F1F700C0000009
:0C01000081508130A9F7E8CFF894FFCFC0
:00000001FF
