:100000000C9434000C943E000C943E000C943E0082
:100010000C943E000C943E000C943E000C943E0068
:100020000C943E000C943E000C943E000C94400056
:100030000C943E000C943E000C943E000C943E0048
:100040000C943E000C943E000C943E000C943E0038
:100050000C943E000C943E000C943E000C943E0028
:100060000C943E000C943E0011241FBECFEFD8E04C
:10007000DEBFCDBF0E9490000C94AC000C94000039
:100080001F920F920FB60F9211248F939F9395B1E9
:1000900080E2892785B99F918F910F900FBE0F90B5
:1000A0001F901895259A0895E0E8F0E0808183601C
:1000B0008083E1E8F0E0808188618083EFE6F0E012
:1000C0008081836080830895E1E8F0E09081892B4E
:1000D000808308959FB7F894E1E8F0E08081887FFD
:1000E00080839FBF08952FB7F894809184009091EA
:1000F00085002FBF789408959C019FB7F8943093A2
:100100008500209384009FBF789408959C019FB739
:10011000F89430938900209388009FBF78940895C5
:100120000E9452000E94540082E00E946400789471
:10013000C0E0D0E0CE010E9486002196CE3F8FEF36
:10014000D807C1F7CFEFDFEFCE010E9486002197DD
:0C015000C130D105C9F7ECCFF894FFCF07
:00000001FF
