:100000000C9434000C9449000C9449000C94490061
:100010000C9449000C9449000C9449000C9449003C
:100020000C9449000C9449000C9449000C9449002C
:100030000C9449000C9449000C9449000C9449001C
:100040000C9449000C9449000C9449000C9449000C
:100050000C9449000C9449000C9449000C944900FC
:100060000C9449000C94490011241FBECFEFD8E036
:10007000DEBFCDBF11E0A0E0B1E0E4E0F1E002C0FE
:1000800005900D92AE30B107D9F70E946D000C9427
:1000900080000C9400009093C5008093C400E1ECB4
:1000A000F0E0808188608083E2ECF0E0808186600F
:1000B000808308959091C00095FFFCCF8093C60087
:1000C0000895CF93DF93EC018991882319F00E9462
:1000D0005A00FACFDF91CF91089587E690E00E9411
:1000E0004B00789480E091E00E9461002FEF83ED57
:1000F00090E3215080409040E1F700C00000F2CF33
:04010000F894FFCFA1
:0E01040048656C6C6F20576F726C640A0D00BA
:00000001FF
