:100000000C9434000C9446000C9446000C9446006A
:100010000C9446000C9446000C9446000C94460048
:100020000C9446000C9446000C9446000C94480036
:100030000C9446000C9446000C9446000C94460028
:100040000C9446000C9446000C9446000C94460018
:100050000C9446000C9446000C9446000C94460008
:100060000C9446000C94460011241FBECFEFD8E03C
:10007000DEBFCDBF21E0A0E0B1E001C01D92A13004
:10008000B207E1F70E9493000C94A0000C940000CA
:100090001F920F920FB60F9211248F939F9395B1D9
:1000A00080E2892785B99F918F910F900FBE0F90A5
:1000B0001F901895259A0895E1E8F0E08081886006
:1000C0008083EFE6F0E08081836080830895E1E83B
:1000D000F0E09081892B808308959FB7F894E1E840
:1000E000F0E08081887F80839FBF08952FB7F894C8
:1000F00080918400909185002FBF789408959C0191
:100100009FB7F89430938500209384009FBF789424
:1001100008959C019FB7F89430938900209388003C
:100120009FBF789408950E945A000E945C007894C2
:1001300084E294EF0E94890084E00E946700FFCF70
:04014000F894FFCF61
:00000001FF
