:100000000C9434000C9446000C9446000C9446006A
:100010000C9446000C9446000C9446000C94460048
:100020000C9446000C9448000C9446000C94460036
:100030000C9446000C9446000C9446000C94460028
:100040000C9446000C9446000C9446000C94460018
:100050000C9446000C9446000C9446000C94460008
:100060000C9446000C94460011241FBECFEFD8E03C
:10007000DEBFCDBF21E0A0E0B1E001C01D92A23003
:10008000B207E1F70E948B000C949D000C940000D5
:100090001F920F920FB60F9211248F939F9380910E
:1000A000000190910101019790930101809300015B
:1000B0008FEE8093B2009F918F910F900FBE0F90A3
:1000C0001F901895259A08952D9A08952D980895B2
:1000D0008FEE8093B200E0E7F0E080818160808362
:1000E0000895E1EBF0E08081876080830895E1EB83
:1000F000F0E08081887F8083089590930101809350
:1001000000010E9471008091000190910101892BF2
:10011000D1F70C9477000E9462000E9468007894E6
:100120000E94640088EE93E00E947D000E946600B9
:0E01300088EE93E00E947D00F3CFF894FFCF9D
:00000001FF
