:100000000C9434000C9446000C9446000C9446006A
:100010000C9446000C9446000C9446000C94460048
:100020000C9446000C9446000C9446000C94460038
:100030000C9446000C9448000C9446000C94460026
:100040000C9446000C9446000C9446000C94460018
:100050000C9446000C9446000C9446000C94460008
:100060000C9446000C94460011241FBECFEFD8E03C
:10007000DEBFCDBF21E0A0E0B1E001C01D92A13004
:10008000B207E1F70E94A5000C94B4000C940000A4
:100090001F920F920FB60F921124109200010F9031
:1000A0000FBE0F901F901895259A08952D9A0895C8
:1000B0002D980895EFE6F0E08081816080830895B7
:1000C000E1E8F0E09081892B808308959FB7F89450
:1000D000E1E8F0E08081887F80839FBF08952FB79B
:1000E000F89480918400909185002FBF78940895B2
:1000F0009C019FB7F89430938500209384009FBFA4
:100100007894089581E0809300018FE791EC0E943C
:10011000780081E00E946000809100018111FCCF95
:100120000C9466000F931F93CF93DF938C010E9472
:100130005A00E801209721F00E9482002197FACF0F
:10014000DF91CF911F910F9108950E9454000E945A
:10015000560088EE93E00E9492000E94580088EEBC
:0C01600093E00E949200F3CFF894FFCFD0
:00000001FF
